S013000041746976696461646531302E7372656325
S11300000C9434000C9451000C9451000C94510045
S11300100C9451000C9451000C9451000C94510018
S11300200C9451000C9487010C9451000C945100D1
S11300300C9451000C9451000C9451000C945100F8
S11300400C9451000C9451000C9484000C945100B5
S11300500C9442010C9451000C9451000C945100E6
S11300600C9451000C94510011241FBECFEFD8E022
S1130070DEBFCDBF14E0A0E0B1E0EEEFF4E002C0DB
S113008005900D92A438B107D9F724E0A4E8B4E0B0
S113009001C01D92A13CB207E1F70E942E020C940C
S11300A07D020C940000CF93DF93CDB7DEB780912F
S11300B0860490918704892B81F485E290E025E2FF
S11300C030E0F90120812062FC01208381E090E08E
S11300D0909387048093860413C080918604909142
S11300E08704019769F485E290E025E230E0F901A4
S11300F020812F7DFC0120831092870410928604B6
S11301000000DF91CF9108951F920F9200905F003D
S11301100F9211242F938F939F93AF93BF93EF93D9
S1130120FF93CF93DF93CDB7DEB786EC90E0FC016D
S1130130808180938E0480918E048337E1F48FE074
S1130140E2E2F4E0AFE8B4E001900D928A95E1F7C1
S113015086EC90E020918F04FC01208384E294EFEC
S113016090938B0480938A0481E090E090938D04B3
S113017080938C0477C080918E048437E1F481E10C
S1130180E1E3F4E0AFE8B4E001900D928A95E1F781
S113019086EC90E020918F04FC01208382E19AE7B1
S11301A090938B0480938A0481E090E090938D0473
S11301B080938C0457C080918E048436E1F485E1E9
S11301C0E2E4F4E0AFE8B4E001900D928A95E1F73F
S11301D086EC90E020918F04FC01208389E09DE36C
S11301E090938B0480938A0481E090E090938D0433
S11301F080938C0437C080918E048136E1F489E0C9
S1130200E7E5F4E0AFE8B4E001900D928A95E1F7F8
S113021086EC90E020918F04FC01208385E89EE128
S113022090938B0480938A0481E090E090938D04F2
S113023080938C0417C083E2E0E6F4E0AFE8B4E016
S113024001900D928A95E1F786EC90E020918F045D
S1130250FC01208310928B0410928A0410928D0466
S113026010928C040000DF91CF91FF91EF91BF9128
S1130270AF919F918F912F910F9000925F000F90FB
S11302801F9018951F920F9200905F000F921124F7
S11302902F933F938F939F93EF93FF93CF93DF938A
S11302A0CDB7DEB7809100019091010181579B4F3A
S11302B0FC0180818823B1F086EC90E0209100015C
S11302C03091010121573B4FF9012081FC0120832A
S11302D08091000190910101019690930101809316
S11302E0000106C081E090E0909301018093000139
S11302F00000DF91CF91FF91EF919F918F913F91FA
S11303002F910F9000925F000F901F9018951F92ED
S11303100F9200905F000F9211242F933F934F93FD
S11303205F936F937F938F939F93AF93BF93EF9359
S1130330FF93CF93DF93CDB7DEB78091880490917C
S113034089040196909389048093880420918804F9
S11303503091890480918A0490918B04281739077D
S113036061F480918C0490918D04019731F40E9482
S11303705300109289041092880480918E0483376C
S113038069F483EB90E020918404309185042E5F1E
S11303903E4FF9012081FC01208337C080918E04F7
S11303A0843769F483EB90E02091840430918504D0
S11303B026533E4FF9012081FC01208326C0809101
S11303C08E04843669F483EB90E0209184043091A8
S11303D085042E563D4FF9012081FC01208315C070
S11303E080918E04813669F483EB90E0209184043B
S11303F030918504265A3C4FF9012081FC01208369
S113040004C083EB90E0FC011082809184049091FD
S113041085040196909385048093840480918404D8
S113042090918504883C910521F4109285041092E2
S113043084040000DF91CF91FF91EF91BF91AF91C0
S11304409F918F917F916F915F914F913F912F91E8
S11304500F9000925F000F901F901895CF93DF9339
S1130460CDB7DEB785EC90E025EC30E0F9012081D2
S1130470207FFC01208384EC90E027E6FC012083AC
S113048080EC90E020EC30E0F90120812C7FFC012D
S1130490208381EC90E028EDFC01208382EC90E045
S11304A02EE0FC01208384E290E024E230E0F901B4
S11304B020812862FC01208380EB90E020EB30E077
S11304C0F90120812368FC01208381EB90E021EB7A
S11304D030E0F90120812160FC01208380E790E075
S11304E020E730E0F90120812160FC01208383EBC7
S11104F090E0FC0110827894FFCFF894FFCFC7
S11304FE01008084888B8F93979B9FA3A7ABAEB28A
S113050EB6B9BDC0C4C7CACED1D4D7DADCDFE2E4F3
S113051EE7E9EBEDEFF1F3F5F6F7F9FAFBFCFDFD88
S113052EFEFEFFFFFFFFFFFEFEFDFDFCFBFAF9F7EB
S113053EF6F5F3F1EFEDEBE9E7E4E2DFDCDAD7D43D
S113054ED1CECAC7C4C0BDB9B6B2AEABA7A39F9B2A
S113055E97938F8B8884807B7774706C6864605CEF
S113056E5854514D4946423F3B3835312E2B2825A0
S113057E23201D1B18161412100E0C0A090806054A
S113058E0403020201010000000000010102020343
S113059E04050608090A0C0E10121416181B1D2049
S11305AE2325282B2E3135383B3F4246494D515495
S11305BE585C6064686C7074777B000305080A0DE0
S11305CE0F1214171A1C1F212426292B2E303336F2
S11305DE383B3D404245474A4D4F525457595C5E55
S11305EE616366696B6E707375787A7D80828587B8
S11305FE8A8C8F919496999C9EA1A3A6A8ABADB01C
S113060EB3B5B8BABDBFC2C4C7C9CCCFD1D4D6D97D
S113061EDBDEE0E3E6E8EBEDF0F2F5F7FAFCFFFCE7
S113062EFAF7F5F2F0EDEBE8E6E3E0DEDBD9D6D44B
S113063ED1CFCCC9C7C4C2BFBDBAB8B5B3B0ADABC8
S113064EA8A6A3A19E9C999694918F8C8A87858245
S113065E807D7A787573706E6B696663615E5C59C2
S113066E5754524F4D4A474542403D3B383633303E
S113067E2E2B292624211F1C1A1714120F0D0A08BB
S113068E050300010304050608090A0B0D0E0F11DC
S113069E1213141617181A1B1C1D1F202122242591
S11306AE2628292A2B2D2E2F30323334363738393B
S11306BE3B3C3D3E40414244454647494A4B4D4EE4
S11306CE4F50525354555758595B5C5D5E6061628E
S11306DE63656667696A6B6C6E6F70717374757738
S11306EE78797A7C7D7E80818283858687888A8BE1
S11306FE8C8E8F90919394959698999A9C9D9E9F8B
S113070EA1A2A3A4A6A7A8AAABACADAFB0B1B3B433
S113071EB5B6B8B9BABBBDBEBFC1C2C3C4C6C7C8DD
S113072EC9CBCCCDCFD0D1D2D4D5D6D7D9DADBDD87
S113073EDEDFE0E2E3E4E6E7E8E9EBECEDEEF0F130
S113074EF2F4F5F6F7F9FAFBFCFE808D9BA8B5C022
S113075ECBD3DADFE2E2DFDAD3C9BDB0A191806E8A
S113076E5D4C3C2E2217100A08090D131D2937471C
S113077E596C7F93A6B9CAD9E6F1F9FDFFFDF9F1DB
S113078EE6D9CAB9A693806C594737291D130D09AA
S113079E080A1017222E3C4C5D6E7F91A1B0BDC984
S11307AED3DADFE2E2DFDAD3CBC0B5A89B8D807259
S11307BE665B5148413C3937383A3E4349515A6396
S11307CE6C767F899199A0A6ABAFB1B2B2B1AEAB44
S11307DEA6A19B948E878079726C66615D5957567B
S11307EE555657595D61666C72797F878E949BA1BD
S11307FEA6ABAEB1B2B2B1AFABA6A09991898076D9
S113080E6C635A5149433E3A3837393C4148515B3F
S113081E66724F6E64612073656E6F6964616C0AF3
S113082E004F6E646120747269616E67756C6172DB
S113083E0A004F6E64612064656E74652D64652DC7
S113084E73657272610A004F6E646120414D0A0035
S113085E4E656E68756D6120666F726D612064659C
S113086E206F6E64612073656C6563696F6E61647D
S107087E610A000007
S9030000FC
