S0120000617469766964616465372E7372656330
S11300000C9434000C9451000C9451000C94510045
S11300100C9451000C9451000C9451000C94510018
S11300200C9451000C9451000C9451000C94510008
S11300300C9451000C9451000C9451000C945100F8
S11300400C9451000C9451000C940D010C9451002B
S11300500C94C2000C9451000C9451000C94510067
S11300600C9451000C94510011241FBECFEFD8E022
S1130070DEBFCDBF12E0A0E0B1E0E6E3F8E002C0ED
S113008005900D92AA32B107D9F722E0AAE2B2E0B4
S113009001C01D92A23AB207E1F70E9487020C94B4
S11300A019040C940000CF93DF931F92CDB7DEB7F1
S11300B0898380912E0290912F020A972CF58091CA
S11300C02A0290912B028C5C9D4F2981FC01208394
S11300D080912A0290912B02019690932B02809397
S11300E02A0280912E0290912F02019690932F0262
S11300F080932E0280912A0290912B020A9721F478
S113010010922B0210922A0200000F90DF91CF91DF
S11301100895CF93DF93CDB7DEB780912E029091EF
S11301202F021816190654F580912C0290912D0275
S11301308C5C9D4FFC018081882F90E0909333026A
S11301408093320280912C0290912D02019690931B
S11301502D0280932C0280912E0290912F02019700
S113016090932F0280932E0280912C0290912D0265
S11301700A9721F410922D0210922C020000DF91B4
S1130180CF9108951F920F9200905F000F92112457
S11301902F933F938F939F93EF93FF93CF93DF938B
S11301A0CDB7DEB78091300290913102825C9D4FD1
S11301B0FC0180818823C1F080910C0190910D0194
S11301C02091300230913102225C3D4FF9012081AF
S11301D0FC0120838091300290913102019690932A
S11301E03102809330020AC0109231021092300220
S11301F081E090E090930101809300010000DF9181
S1130200CF91FF91EF919F918F913F912F910F90FB
S113021000925F000F901F9018951F920F9200900C
S11302205F000F9211242F933F934F935F936F932B
S11302307F938F939F93AF93BF93EF93FF93CF934A
S1130240DF93CDB7DEB780910C0190910D01FC01D5
S113025080810E9453000000DF91CF91FF91EF91C4
S1130260BF91AF919F918F917F916F915F914F91CA
S11302703F912F910F9000925F000F901F9018955F
S1130280CF93DF93CDB7DEB766970FB6F894DEBF92
S11302900FBECDBF88E0EAE1F2E0DE011F960190D7
S11302A00D928A95E1F78091320290913302823760
S11302B0910589F480911001909111012889FC0124
S11302C0208385E2E2E1F1E0AEE3B2E001900D9239
S11302D08A95E1F7A0C0809132029091330287366B
S11302E0910589F480911001909111012989FC01F3
S11302F0208382E2E7E3F1E0AEE3B2E001900D9205
S11303008A95E1F788C08091320290913302823657
S1130310910589F480911001909111012A89FC01C1
S1130320208381E2E9E5F1E0AEE3B2E001900D92D1
S11303308A95E1F770C08091320290913302893737
S1130340910589F480911001909111012B89FC0190
S1130350208384E2EAE7F1E0AEE3B2E001900D929B
S11303608A95E1F758C08091320290913302833626
S1130370910589F480911001909111012C89FC015F
S1130380208382E2EEE9F1E0AEE3B2E001900D9267
S11303908A95E1F740C080913202909133028D3604
S11303A0910589F480911001909111012D89FC012E
S11303B0208384E2E0ECF1E0AEE3B2E001900D9240
S11303C08A95E1F728C080913202909133028737F1
S11303D0910589F480911001909111012E89FC01FD
S11303E0208383E2E4EEF1E0AEE3B2E001900D920B
S11303F08A95E1F710C080911001909111012F8529
S1130400FC01208383E1E7E0F2E0AEE3B2E0019097
S11304100D928A95E1F780E090E0A8E4B3E4898343
S11304209A83AB83BC8320E030E04AE755E46981DA
S11304307A818B819C810E948403DC01CB018D83B2
S11304409E83AF83B88720E030E040E85FE36D81AE
S11304507E818F8198850E94FE0288232CF481E09E
S113046090E09A8789873FC020E03FEF4FE757E449
S11304706D817E818F8198850E947F0318164CF5CB
S113048020E030E040E251E469817A818B819C81F3
S11304900E948403DC01CB01BC01CD010E94030353
S11304A0DC01CB019A8789870FC080E991E09C87A2
S11304B08B878B859C850197F1F79C878B87898532
S11304C09A8501979A87898789859A85892B69F7FF
S11304D014C06D817E818F8198850E940303DC01A5
S11304E0CB019A87898789859A859E878D878D8593
S11304F09E850197F1F79E878D87000066960FB65B
S1130500F894DEBF0FBECDBFDF91CF910895CF9396
S1130510DF93CDB7DEB728970FB6F894DEBF0FBED2
S1130520CDBF8091020190910301FC011082809162
S113053004019091050127E6FC01208380910601C6
S1130540909107012091060130910701F901208162
S11305502C7FFC012083809108019091090128EDF2
S1130560FC01208380910A0190910B012EE0FC0193
S1130570208380910E0190910F0120910E01309102
S11305800F01F90120812760FC012083789428E081
S1130590EAE1F2E0CE010196DC0101900D922A9588
S11305A0E1F78091000190910101019751F480914C
S11305B00C0190910D01FC01108210920101109226
S11305C0000180912E0290912F02181619062CF426
S11305D00E9489000E944001E4CF80911001909113
S11305E011012981FC01208388E0E2E2F2E0AEE31C
S11305F0B2E001900D928A95E1F7D3CF0E943203C5
S113060008F481E008950E945E0388F09F5798F0F3
S1130610B92F9927B751B0F0E1F0660F771F881F03
S1130620991F1AF0BA95C9F714C0B13091F00E941D
S11306307803B1E008950C947803672F782F882706
S1130640B85F39F0B93FCCF3869577956795B39544
S1130650D9F73EF490958095709561957F4F8F4FB3
S11306609F4F0895990F0008550FAA0BE0E8FEEF7D
S113067016161706E807F907C0F012161306E40762
S1130680F50798F0621B730B840B950B39F40A265B
S113069061F0232B242B252B21F408950A2609F439
S11306A0A140A6958FEF811D811D089557FD905897
S11306B0440F551F59F05F3F71F04795880F97FB22
S11306C0991F61F09F3F79F08795089512161306DC
S11306D01406551FF2CF4695F1DF08C0161617060B
S11306E01806991FF1CF8695710561050894089540
S11306F0E894BB2766277727CB0197F908950E94D2
S1130700320308F48FEF08950E9497030C940804B1
S11307100E94FA0338F00E94010420F0952311F09E
S11307200C94F1030C94F70311240C9479030E94A4
S1130730560370F3959FC1F3950F50E0551F629FC8
S1130740F001729FBB27F00DB11D639FAA27F00D26
S1130750B11DAA1F649F6627B00DA11D661F829F4D
S11307602227B00DA11D621F739FB00DA11D621F32
S1130770839FA00D611D221F749F3327A00D611D4F
S1130780231F849F600D211D822F762F6A2F112431
S11307909F5750409AF0F1F088234AF0EE0FFF1F64
S11307A0BB1F661F771F881F91505040A9F79E3FBB
S11307B0510580F00C94F1030C9479035F3FE4F34A
S11307C0983ED4F3869577956795B795F795E79511
S11307D09F5FC1F7FE2B880F911D9695879597F91A
S11307E0089597F99F6780E870E060E008959FEFAF
S11307F080EC089500240A941616170618060906B4
S1130800089500240A941216130614060506089582
S1130810092E0394000C11F4882352F0BB0F40F40A
S1130820BF2B11F460FF04C06F5F7F4F8F4F9F4F4A
S10908300895F894FFCFC7
S11308360100C500C400C000C100C200C6002400F7
S11308462500436F6D616E646F3A204163656E6483
S11308566572204C4544202D20636F7220766572A4
S11308666D656C68610A00436F6D616E646F3A2052
S11308764163656E646572204C4544202D20636F88
S1130886722076657264650A00436F6D616E646FEB
S11308963A204163656E646572204C4544202D20E0
S11308A6636F7220617A756C0A00436F6D616E64C2
S11308B66F3A204163656E646572204C4544202D71
S11308C620636F7220616D6172656C610A00436F0B
S11308D66D616E646F3A204163656E646572204C87
S11308E64544202D20636F72206369616E6F0A0090
S11308F6436F6D616E646F3A204163656E64657221
S1130906204C4544202D20636F72206D6167656E0F
S113091674610A00436F6D616E646F3A20416365CA
S11309266E646572204C4544202D20636F722062EC
S113093672616E63610A00436F6D616E646F206954
S11309466E636F727265746F0A0000010204030617
S10D0956050756617A696F210A0053
S9030000FC
