S0120000617469766964616465352E7372656332
S11300000C9434000C9477000C9451000C9451001F
S11300100C9492000C9451000C9451000C945100D7
S11300200C9451000C9451000C9451000C94510008
S11300300C9451000C9451000C9451000C945100F8
S11300400C9451000C9451000C9451000C945100E8
S11300500C9451000C9451000C9451000C945100D8
S11300600C9451000C94510011241FBECFEFD8E022
S1130070DEBFCDBF11E0A0E0B1E0E6E8F2E002C0EF
S113008005900D92AE31B107D9F721E0AEE1B1E0B0
S113009001C01D92A032B207E1F70E94B8000C948F
S11300A041010C9400000F931F932F933F9393955A
S11300B017E000ED20E030E0201719F4311741F08B
S11300C000C023952F3F09F0F7CF339520E0F4CFFC
S11300D0803009F411F08A95EBCF9A958FEF903028
S11300E039F701F03F912F911F910F9108951F92BD
S11300F00F920FB60F9211248F939F93809100015A
S11301009091010199230CF401969595879590930C
S11301100101809300019F918F910F900FBE0F906A
S11301201F9018951F920F920FB60F9211248F9360
S11301309F93EF93FF93E0910601F0910701808173
S113014081708083882359F080910201909103018A
S11301509195819591099093030180930201FF91F8
S1130160EF919F918F910F900FBE0F901F90189554
S1130170CF93DF93CDB7DEB728970FB6F894DEBFE1
S11301800FBECDBFE0911401F09115018081836011
S11301908083E0911201F09113018081816080835A
S11301A0E0911001F0911101808182608083E091DF
S11301B00E01F0910F01808181608083E0910C0138
S11301C0F0910D01808187608083E0910801F091B6
S11301D0090180818E7F8083E0910401F091050103
S11301E080818B7F808388E0E6E1F1E0DE01119677
S11301F001900D928A95E1F7789408EE13E0A091AE
S11302000A01B0910B01E0911E01F0911F0181E000
S113021090E08C0F9D1FE80FF91F80818C93209133
S11302201E0130911F018091020190910301820F00
S1130230931F99232CF090931F0180931E0105C0F6
S1130240089690931F0180931E0180911E01909146
S11302501F01089721F410921F0110921E01809132
S11302600001909101018D37910524F4109301014F
S11302700093000180910001909101010E945300BC
S1090280BECFF894FFCF8D
S1130286E80301002A0026002700250024006C004C
S111029668003D00690000010204030605072C
S9030000FC
