:100000000C9434000C9446000C9446000C9446006A
:100010000C9446000C9446000C9446000C94460048
:100020000C9446000C9448000C9446000C94460036
:100030000C9446000C9446000C9446000C94460028
:100040000C9446000C9446000C9446000C94460018
:100050000C9446000C9446000C9446000C94460008
:100060000C9446000C94460011241FBECFEFD8E03C
:10007000DEBFCDBF21E0A0E0B1E001C01D92A43001
:10008000B207E1F70E94A2000C94B9000C940000A2
:100090001F920F920FB60F9211242F938F939F935D
:1000A000EF93FF9380910201909103010196909349
:1000B000030180930201C297B1F5809100019091F4
:1000C0000101009759F5E4EBF0E080818F5F8083B8
:1000D000109203011092020126C081E090E09093FB
:1000E0000101809300018091020190910301C29768
:1000F00049F4E4EBF0E080818150808310920301A9
:10010000109202018091B400811112C0109201017D
:10011000109200010DC00197A9F7EBCF2091B40018
:10012000283CD9F2F8CF8091B400883C59F7D5CF5C
:10013000FF91EF919F918F912F910F900FBE0F9094
:100140001F901895539AE0EBF0E0808183628083E2
:10015000E1EBF0E080818A608083E0E7F0E080817D
:10016000816080831092B40088EC8093B30078940F
:06017000FFCFF894FFCF61
:00000001FF
